:03000000020100FA
:1001000012810C758160C2D3C2D4800012810C129E
:1001100001DBC0E074201281021201DBC0E0742018
:10012000128102120209C0E012021C742012810224
:10013000743D1281027420128102D031D030D0324D
:10014000E531B40A0302015DB40B03020173B40C80
:100150000302018BB40D030201A70201D5E532258C
:1001600030D45009F5F07431128102E5F0128104A7
:100170000201D5C3E5329530500A742D128102E593
:1001800030C39532D41281040201D5E53212023E09
:10019000F5F0E53012023EA4C0E0E5F0128104D093
:1001A000E01281040201D5E53012023EF5F0E5329D
:1001B00012023E84ADF012025212025A74201281D1
:1001C00002ED12025212025A742F128102E530120D
:1001D000025A0201D512811A02010C12811CF5F09B
:1001E000B40A0280F6400280F22430128102E5F067
:1001F000C4FA12811CF5F0B40A0280F6400280F2C3
:100200002430128102E5F02A2212811CB40A012254
:10021000B40B0122B40C0122B40DEE22C0E0B40AEA
:1002200005742B020238B40B05742D020238B40C8D
:10023000057478020238742F128102D0E022ABF0EC
:1002400075F00AC0E054F0C4A4FCD0E0540F2C8B2D
:10025000F02275F00A84C425F022C0E0C4540FB423
:10026000000AD0E0540F243012810222243012817F
:0A02700002D0E0540F243012810286
:00000001FF